{
  "_format": "hh3-artifact-1",
  "contractName": "CrowdFund",
  "sourceName": "contracts/CrowdFund.sol",
  "abi": [
    {
      "inputs": [
        {
          "internalType": "uint256",
          "name": "_goalAmount",
          "type": "uint256"
        },
        {
          "internalType": "uint256",
          "name": "_duration",
          "type": "uint256"
        }
      ],
      "stateMutability": "nonpayable",
      "type": "constructor"
    },
    {
      "anonymous": false,
      "inputs": [
        {
          "indexed": true,
          "internalType": "address",
          "name": "contributor",
          "type": "address"
        },
        {
          "indexed": false,
          "internalType": "uint256",
          "name": "amount",
          "type": "uint256"
        }
      ],
      "name": "ContributionReceived",
      "type": "event"
    },
    {
      "anonymous": false,
      "inputs": [
        {
          "indexed": true,
          "internalType": "address",
          "name": "contributor",
          "type": "address"
        },
        {
          "indexed": false,
          "internalType": "uint256",
          "name": "amount",
          "type": "uint256"
        }
      ],
      "name": "RefundIssued",
      "type": "event"
    },
    {
      "anonymous": false,
      "inputs": [
        {
          "indexed": true,
          "internalType": "address",
          "name": "owner",
          "type": "address"
        },
        {
          "indexed": false,
          "internalType": "uint256",
          "name": "amount",
          "type": "uint256"
        }
      ],
      "name": "Withdraw",
      "type": "event"
    },
    {
      "inputs": [],
      "name": "contribute",
      "outputs": [],
      "stateMutability": "payable",
      "type": "function"
    },
    {
      "inputs": [
        {
          "internalType": "address",
          "name": "",
          "type": "address"
        }
      ],
      "name": "contributions",
      "outputs": [
        {
          "internalType": "uint256",
          "name": "",
          "type": "uint256"
        }
      ],
      "stateMutability": "view",
      "type": "function"
    },
    {
      "inputs": [],
      "name": "deadline",
      "outputs": [
        {
          "internalType": "uint256",
          "name": "",
          "type": "uint256"
        }
      ],
      "stateMutability": "view",
      "type": "function"
    },
    {
      "inputs": [],
      "name": "goalAmount",
      "outputs": [
        {
          "internalType": "uint256",
          "name": "",
          "type": "uint256"
        }
      ],
      "stateMutability": "view",
      "type": "function"
    },
    {
      "inputs": [],
      "name": "goalReached",
      "outputs": [
        {
          "internalType": "bool",
          "name": "",
          "type": "bool"
        }
      ],
      "stateMutability": "view",
      "type": "function"
    },
    {
      "inputs": [],
      "name": "owner",
      "outputs": [
        {
          "internalType": "address",
          "name": "",
          "type": "address"
        }
      ],
      "stateMutability": "view",
      "type": "function"
    },
    {
      "inputs": [],
      "name": "refund",
      "outputs": [],
      "stateMutability": "nonpayable",
      "type": "function"
    },
    {
      "inputs": [],
      "name": "totalFunds",
      "outputs": [
        {
          "internalType": "uint256",
          "name": "",
          "type": "uint256"
        }
      ],
      "stateMutability": "view",
      "type": "function"
    },
    {
      "inputs": [],
      "name": "withdraw",
      "outputs": [],
      "stateMutability": "nonpayable",
      "type": "function"
    }
  ],
  "bytecode": "0x6080604052348015600e575f5ffd5b50604051610658380380610658833981016040819052602b916053565b5f80546001600160a01b031916331790556002829055604981426074565b6003555060989050565b5f5f604083850312156063575f5ffd5b505080516020909101519092909150565b80820180821115609257634e487b7160e01b5f52601160045260245ffd5b92915050565b6105b3806100a55f395ff3fe608060405260043610610084575f3560e01c8063590e1ae311610057578063590e1ae3146101065780637d3d65221461011a5780638da5cb5b14610143578063968ed60014610179578063d7bb99ba1461018e575f5ffd5b80632636b9451461008857806329dcb0cf146100b05780633ccfd60b146100c557806342e94c90146100db575b5f5ffd5b348015610093575f5ffd5b5061009d60025481565b6040519081526020015b60405180910390f35b3480156100bb575f5ffd5b5061009d60035481565b3480156100d0575f5ffd5b506100d9610196565b005b3480156100e6575f5ffd5b5061009d6100f536600461052b565b60056020525f908152604090205481565b348015610111575f5ffd5b506100d96102b7565b348015610125575f5ffd5b506004546101339060ff1681565b60405190151581526020016100a7565b34801561014e575f5ffd5b505f54610161906001600160a01b031681565b6040516001600160a01b0390911681526020016100a7565b348015610184575f5ffd5b5061009d60015481565b6100d961041b565b5f546001600160a01b031633146101f45760405162461bcd60e51b815260206004820152601860248201527f4f6e6c79206f776e65722063616e2063616c6c2074686973000000000000000060448201526064015b60405180910390fd5b60045460ff166102395760405162461bcd60e51b815260206004820152601060248201526f11dbd85b081b9bdd081c995858da195960821b60448201526064016101eb565b5f805460405147926001600160a01b039092169183156108fc02918491818181858888f19350505050158015610271573d5f5f3e3d5ffd5b505f546040518281526001600160a01b03909116907f884edad9ce6fa2440d8a54cc123490eb96d2768479d49ff9c7366125a9424364906020015b60405180910390a250565b6003544210156103015760405162461bcd60e51b815260206004820152601560248201527443616d706169676e207374696c6c2061637469766560581b60448201526064016101eb565b60045460ff16156103545760405162461bcd60e51b815260206004820152601c60248201527f476f616c2077617320726561636865643b206e6f20726566756e64730000000060448201526064016101eb565b335f90815260056020526040902054806103b05760405162461bcd60e51b815260206004820152601a60248201527f4e6f20636f6e747269627574696f6e7320746f20726566756e6400000000000060448201526064016101eb565b335f818152600560205260408082208290555183156108fc0291849190818181858888f193505050501580156103e8573d5f5f3e3d5ffd5b5060405181815233907fa171b6942063c6f2800ce40a780edce37baa2b618571b11eedd1e69e626e7d76906020016102ac565b60035442106104615760405162461bcd60e51b815260206004820152601260248201527110d85b5c185a59db881a185cc8195b99195960721b60448201526064016101eb565b5f34116104a05760405162461bcd60e51b815260206004820152600d60248201526c09aeae6e840e6cadcc8408aa89609b1b60448201526064016101eb565b335f90815260056020526040812080543492906104be908490610558565b925050819055503460015f8282546104d69190610558565b9091555050600254600154106104f4576004805460ff191660011790555b60405134815233907f1bb460ccaaf70fbacfec17a376f8acbd278c1405590ffcc8ebe4b88daf4f64ad9060200160405180910390a2565b5f6020828403121561053b575f5ffd5b81356001600160a01b0381168114610551575f5ffd5b9392505050565b8082018082111561057757634e487b7160e01b5f52601160045260245ffd5b9291505056fea26469706673582212202f4f4e79d2bf61a390740167fed75624c924f734ecef65de15b461f849c5e66e64736f6c634300081c0033",
  "linkReferences": {},
  "deployedLinkReferences": {},
  "immutableReferences": {},
  "inputSourceName": "project/contracts/CrowdFund.sol",
  "buildInfoId": "solc-0_8_28-ef0c34ced26f1014cd5dbb2262dfb85c460aecc5"
}